:02000004F90001
:1000000097610000938181C323AC0182732540F185
:10001000630E050203A58183E30E05FE0F00200297
:100020000F10000083A74183130500009305000013
:10003000130600006780070023AAA1820F001001A9
:100040001305100023ACA182678000001771000027
:100050001301414317550000130585C5975500004E
:10006000938505C51386418363FCC5008322050083
:1000700023A055001305450093854500E3E8C5FE20
:1000800013854183938501846378B500232005009F
:1000900013054500E36CB5FEEF00000CEF00C02730
:0800A0006F0000006780000002
:1000A800B367B50093F737006392070803A7050005
:1000B800B7867F7F9386F6F7B377D700B387D700E5
:1000C800B3E7E700B3E7D7001306F0FF639EC70660
:1000D800130605001308F0FF130646009385450034
:1000E800232EE6FE03A70500B377D700B387D70012
:1000F800B3E7E700B3E7D700E38007FF83C705004E
:1001080003C7150083C625002300F600638A07008D
:10011800A300E600630607002301D60063940600E7
:1001280067800000A30106006780000093070500B0
:1001380003C705009387170093851500A38FE7FE73
:10014800E31807FE67800000130605006FF01FFB29
:10015800130101FF232481002320210117540000EB
:10016800130484B417590000130909B433098940EA
:10017800232611002322910013592940630E0900F8
:10018800930400008327040093841400130444009C
:10019800E7800700E31899FE175400001304C4B061
:1001A80017590000130949B03309894013592940E8
:1001B800630E09009304000083270400938414004D
:1001C80013044400E7800700E31899FE8320C10068
:1001D8000324810083244100032901001301010144
:1001E80067800000130101FF2324810023261100EA
:1001F8009377350013040500639607060327050067
:100208003706FFFE1306F6EFB307C700B7868080F0
:100218001347F7FF93860608B3F7E700B3F7D7004D
:10022800639207041305450003270500B307C700B9
:100238001347F7FFB3F7E700B3F7D7006394070254
:100248001305450003270500B307C7001347F7FF49
:10025800B3F7E700B3F7D700E38607FC6F00800029
:100268001305150083470500E39C07FEEFF05FE3E5
:10027800130504008320C100032481001301010138
:10028800678000009377350013070500639C070417
:10029800B7867F7F9386F6F79305F0FF130747002D
:1002A8000326C7FFB377D600B387D700B3E7C700E5
:1002B800B3E7D700E384B7FE8346C7FFB307A74079
:1002C8000346D7FF0345E7FF63800604630A060277
:1002D8003335A0003305F5001305E5FF67800000FE
:1002E800E38806FA83470700130717009376370059
:1002F800E39807FE3307A7401305F7FF6780000060
:100308001385D7FF678000001385C7FF678000004B
:10031800130101FF232611002324810023229100C9
:10032800B70701F81307B00623A4E700375500F90B
:100338001307700023A6E700130585CDEF0000150D
:10034800375500F91305C5CFEF004014370401F8FD
:10035800B75400F98327440093D78701E38C07FE3D
:100368008327440093D78701E38C07FE8325040085
:10037800138504D393F5F50FEF0040116FF09FFD3F
:10038800130101FE9357F541232A9100B3C4A70036
:10039800232821012326310123244101232061013F
:1003A800232E1100232C810023225101130A05005A
:1003B80013890500B384F44093090000130B9000DF
:1003C8009305A00013850400EF10503F1384190013
:1003D80013050503B30A8900A38FAAFE9305A0009D
:1003E80013850400EF105035634C9B0463580A00D2
:1003F8009307D002138429002380FA00330489006C
:100408002300040013050900EFF0DFE71305F5FFEB
:100418009307000063CCA7028320C1010324810154
:1004280083244101032901018329C100032A810092
:10043800832A4100032B0100130101026780000099
:1004480093090400930405006FF09FF73307A90090
:10045800B306F9008345070003C606009387170013
:100468002380B6002300C7001305F5FF6FF09FFA3D
:10047800370701F88327470093D7070193F7F70F4A
:10048800E38A07FE2320A70067800000130101F715
:100498002322F108930741072328F1002322A1050D
:1004A8002320B10503AD818183ADC18123240109D6
:1004B80003A8418283A70182232C4105232A5105E1
:1004C800375A00F9B75A00F92322910623268105E5
:1004D800232611062324810623202107232E3105F4
:1004E8002328610523249105130C0500232AB1064E
:1004F800232CC106232ED1062320E1082326110927
:10050800930400002320F10023220101130A0ACBDF
:10051800938A4ACCB3079C0003C50700631E0502F3
:100528008320C1060324810683244106032901068A
:100538008329C105032A8105832A4105032B010567
:10054800032CC104832C8104032D4104832D010451
:100558001301010967800000930750026310F50436
:1005680013073006930630071306400693058005E7
:10057800130580071308600693841400B3079C00D2
:1005880083C70700638E0702639EE7008327010184
:1005980003C50700138747002328E100EFF05FED4C
:1005A8006F0000026398D7028327010103A40700A4
:1005B800138747002328E10003450400631605005C
:1005C800938414006FF01FF513041400EFF05FEA32
:1005D8006FF09FFE639AC7068327010103A90700EE
:1005E800138747002328E100635809001305D00248
:1005F800EFF01FE8330920411304010293090400B6
:10060800631E0900630C34011304F4FF034504005E
:10061800EFF01FE6E31A34FF6FF09FFA9305A0008E
:1006280013050900EF1090191305050313041400AE
:10063800A30FA4FE9305A00013050900EF10D00F27
:10064800130905006FF0DFFB639EB70283270101E2
:100658001304C0011309C0FF83A9070013874700CB
:100668002328E100B3D7890093F7F700B387FA008E
:1006780003C507001304C4FFEFF09FDFE31424FF52
:100688006FF01FF4639EA702832701011304C001C2
:100698001309C0FF83A90700138747002328E10037
:1006A800B3D7890093F7F700B307FA0003C507002B
:1006B8001304C4FFEFF0DFDBE31424FF6FF05FF0F7
:1006C800E39C07EB8327010113040102130B51017B
:1006D8009387770093F787FF03A9070083A947004B
:1006E8001387870013050900938509002328E10073
:1006F800EF10001F930C0500EF10C026130605002D
:10070800938605001305090093850900EF009015ED
:1007180093890500130905009305040013850C004F
:10072800EFF01FC69307E00293850900130509003F
:10073800230AF100EF10C05EEF10804E13060D0083
:1007480093860D00EF008021EF10805D9305000077
:1007580093090500EF104039635C05009307D00248
:10076800A30AF100B7070080B3C93701130B610171
:1007780013094000930C00031309F9FF130509003E
:10078800EF10401E1306050093860500032501009F
:1007980083254100EF10D00E2324A1001385090002
:1007A8002326B100EF10C047032681008326C1002D
:1007B800EF00C00A635E0500930500001385090079
:1007C800EF1040266356A00023009B01130B1B006B
:1007D800E31409FA13850900EF10403D93050B0057
:1007E800EFF01FBA034751019307D0026310F702D5
:1007F800930741011307C10183C627009387170098
:100808002380D700E31AF7FE13091000930541016E
:1008180013050400EFF01F9D034701029307D00260
:100828006304F702930710006310F902930741036A
:1008380003C7F7FF9387F7FFA380E700E31AF4FEE7
:100848009307D0022300F10203450400E30A05D60A
:1008580013041400EFF0DFC16FF01FFF13D7450139
:10086800B70710009387F7FF13D846011377F77F70
:100878009308F07F33F3B700130E0500B3F7D700E2
:1008880093D5F501930E06001378F87F93D6F601F9
:10089800630A170563021803631C07043365A30082
:1008A8006316080233E6C7006312060293060000C7
:1008B800630205066F000002B3E8C700E38E08FC78
:1008C8009306200013850600678000006302050474
:1008D800638ED50493061000638E05029306F0FF1D
:1008E8006F0040033365A300E31C05FC6308E802BE
:1008F8006316080033E6C700E30E06FCE39CD5FC4C
:100908006356E802E39C06FC930610006F00800023
:10091800E38606FC138506006780000033E6C700FF
:10092800E30E06FC930620006FF0DFF9634A070127
:10093800E3E267FA630CF30093060000E37CF3FC40
:10094800E38E05F8938605006FF0DFFCE3E4CEF94B
:1009580093060000E370DEFD6FF09FFE130101FCBB
:1009680093D74501232C8102232821032324410303
:100978001394C500232E1102232A91022326310342
:100988002322510323206103232E710193F7F77F5C
:10099800130905001354C40013DAF501638C071416
:1009A8001307F07F6388E720131534001354D90127
:1009B8003364A400370580003364A400931439001D
:1009C800138B17C093090000930B000093D74601BF
:1009D8001399C60093F7F77F1359C90093DAF60104
:1009E800638207181307F07F638CE7041315390037
:1009F8001359D6013369A900938717C037058000BA
:100A08003369A90093163600330BFB001305000069
:100A180033485A011307F0009305080093071B0099
:100A2800636C3721174600001306C63193992900D5
:100A3800B389C90003A709003307C7006700070087
:100A4800B366C900130BFB7F6390061C93E929006A
:100A580013090000130520006FF09FFB1308000026
:100A68009307F07F37040800930400001314C400B0
:100A7800939747011354C4001318F8013364F40022
:100A880033640401930504008320C1030324810314
:100A98001385040003290103832441038329C10228
:100AA800032A8102832A4102032B0102832BC101FD
:100AB800130101046780000093850A0013040900EC
:100AC80093840600930B050013072000638CEB1436
:100AD80013073000E384EBF81307100013880500B0
:100AE800639EEB5693070000130400009304000074
:100AF8006FF0DFF7B364A400638E040E2326D100E1
:100B08002324C1006302044413050400EF10004EBF
:100B1800032681008326C10093070500930555FF2E
:100B28001307D001938487FF3307B7403314940029
:100B38003357E90033648700B3149900130BD0C00E
:100B4800330BFB4093D746011399C60093F7F77F01
:100B580093090000930B00001359C90093DAF601BA
:100B6800E39207E8B366C900638406066306093A98
:100B7800130509002324C100EF1040470326810014
:100B880093070500930555FF1307D001938687FF48
:100B98003307B7403319D9003357E60033692701C3
:100BA800B316D600B307FB40138BD7C0130500005C
:100BB8006FF01FE6B364A4006394040213040000FA
:100BC80093098000130BF07F930B20006FF01FE058
:100BD80093E9190013090000130510006FF05FE393
:100BE800930405009309C000130BF07F930B3000AA
:100BF8006FF0DFDD1304000093094000130B0000C1
:100C0800930B10006FF09FDC93E939009306060000
:100C1800130530006FF0DFDF1307200093050A008B
:100C2800E398EBEA138805009307F07F13040000AC
:100C3800930400006FF09FE3B7030100138EF3FFE6
:100C480033FFC40133FEC60113D3040193D8060150
:100C580013050F0093050E00EF10C02B930E05002F
:100C68009385080013050F00EF10C02A130705002D
:100C780093050E0013050300EF10C0299302050029
:100C88009385080013050300EF10C02893D60E01C2
:100C980033075700B386E600930F050063F4560048
:100CA800B30F7500B70301009389F3FFB3F436015E
:100CB80013970401B3F43E01B379390193DE0601B9
:100CC800B30497001359090113050F009385090010
:100CD800EF104024930205009305090013050F0047
:100CE800EF104023130F0500938509001305030037
:100CF800EF104022130A05009305090013050300AD
:100D0800EF10402113D70201330F4F013307E701DA
:100D18006374470133057500370A01009306FAFF2B
:100D28003373D70013130301B3F2D200B303530094
:100D3800135707013373D400330FA700B38E7E0017
:100D4800135404011305030093050E00EF10801CD3
:100D5800130705009385080013050300EF10801B97
:100D68009302050093050E0013050400EF10801A86
:100D7800130E05009385080013050400EF10801971
:100D880093560701B382C201B386560063F4C601C5
:100D980033054501370A01001306FAFFB3F8C60008
:100DA8003377C70093D6060193980801B382A6004B
:100DB800B388E8001305030093850900EF10801538
:100DC800130E05009305090013050300EF108014A6
:100DD800130705009385090013050400EF1080131D
:100DE800130305009305090013050400EF10801292
:100DF80013560E01330767003306E6006374660076
:100E080033054501B70601009386F6FF3377D60010
:100E1800337EDE0013170701B386FE013307C701CF
:100E280033B376003307E701B3861601330467004E
:100E3800B3B81601B3055400338E15013337E701F3
:100E4800333464003364870013560601B3B5550084
:100E5800B3381E013304C400B3E815011397960094
:100E6800330414013304A400B364970013149400EA
:100E780013557E01B334900093D6760113179E0064
:100E8800B3E4D4003364A400B3E4E400131774009B
:100E98006350070213D7140093F414009316F40157
:100EA800B3649700B3E4D40013541400138B070001
:100EB8001307FB3F6350E00C93F77400638007024D
:100EC80093F7F40093064000638AD70093874400A1
:100ED800B3B4970033049400938407009317740005
:100EE80063DA0700B70700FF9387F7FF3374F4004E
:100EF80013070B409307E07F63CAE71493D73400C6
:100F08009314D40113149400B3E4F4001354C400EC
:100F18009377F77F6FF09FB5130506002324C10070
:100F2800EF10C00C930555011307C0019307050284
:100F380003268100E35AB7C4130585FF9306000012
:100F48003319A6006FF01FC6EF10400A930555012C
:100F58001307C00193070502032681008326C100F9
:100F6800E350B7BC130585FF930400003314A900B0
:100F78006FF0DFBC93061000B386E64063100706E7
:100F88009307EB413397F400B317F400B3D4D400BC
:100F9800B3E497003337E000B3E4E40093F7740058
:100FA800B356D4006380070293F7F4001307400098
:100FB800638AE70093874400B3B49700B38696002A
:100FC800938407009397860063D40706930710005D
:100FD80013040000930400006FF05FA993078003D7
:100FE800E3C2D7B09307F001E3DCD7F8930710FE0C
:100FF8003387E740930700023357E4006388F6001D
:101008009307EB43B317F400B3E4F400B334900050
:10101800B3E4E40093F6740013040000638006024E
:1010280093F7F4001307400093060000E394E7F8F1
:10103800139496001354C4009396D60193D43400A5
:10104800B3E4D400930700006FF05FA29307F07F2A
:1010580013040000930400006FF05FA1138B0700D6
:101068006FF01FE5370710001307F7FF130101FEA4
:101078003373B70093D846013377D700935ED60110
:10108800232C8100232A91001313330093D44501A4
:101098009357D50113173700232E11002328210158
:1010A8002326310193F8F87F130EF07F33E7EE0023
:1010B80093F4F47F13D4F50133E36700131F35006D
:1010C80093D6F601931E36006386C81D93C6160094
:1010D800B38514416308D4166358B01C6384082090
:1010E800B70780003367F700638AC46793078003F4
:1010F80063C2B73E9307F00163CAB754930700026F
:10110800B387B740B3D9BE003318F700B39EFE00CB
:10111800336838013357B700B339D0013368380121
:101128003303E340B3090F41B3373F013306F340BC
:101138009317860063D8072A370980001309F9FF37
:10114800337926016306093613050900EF00106A92
:10115800130785FF93070002B387E740B3D7F90069
:101168003316E900B3E7C700B399E900634497323F
:1011780033079740130617009306F00163CAC64465
:10118800130700023307C740B3D6C9003398E900F4
:101198003397E7003367D70033380001B369070195
:1011A80033D6C7009304000093F7790063800702E1
:1011B80093F6F90093074000638AF6009386490086
:1011C80033B8360133060601938906009317860063
:1011D80063DE0720138714009307F07F137414004D
:1011E8006304F726B70780FF9387F7FFB377F60006
:1011F8001398D70193D9390093979700336838012A
:1012080093D7C7001377F77F9396C7001317470143
:1012180093D6C6001314F401B3E6E600B3E68600DD
:101228008320C10103248101832441010329010191
:101238008329C100130508009385060013010102E4
:1012480067800000635EB00A638A0814B7078000ED
:101258003367F700638CC4339307800363C0B71CFC
:101268009307F00163DAB744138805FE9307000279
:10127800B3590701638AF50093070004B385B740A3
:101288003317B700B3EEEE003338D00133683801B6
:101298006F004019B367D7019385148063940700E2
:1012A80093C61600630ED404639A05089387140046
:1012B80093F7E77F63920724B367E3013368D701A5
:1012C800639C041863800746631E084C1318350096
:1012D8009316D3011358380033E8060193573300A7
:1012E8006F008012B367D701638C071E9387F5FFE1
:1012F800638A0744638CC529938507006FF01FDF55
:10130800639205229386140093F7E67F6396070A93
:10131800B367E3016396043E63880750B367D70158
:1013280063900752131535001318D3011355350070
:101338003368A800935733006F00000DB3859840B9
:1013480063920426B367E301638E07389387F5FF3A
:10135800638E074A1305F07F638EA52493850700E3
:101368009307800363CAB7309307F00163CAB7468F
:1013780093070002B387B7403318F3003356BF0012
:10138800B317FF003368C800B339F0003353B30014
:1013980033683801330767406F00802EB367D70181
:1013A800638007149387F5FF638E07246380C5372E
:1013B800938507006FF05FEA9307F07F6384F60870
:1013C800B30EDF0133B6EE01B307E300B387C700FE
:1013D8001398F70193DE1E00B369D80113D61700DE
:1013E8009384060093F77900E39407DC9317D601FA
:1013F80013D839003368F8009385040093573600F2
:101408001307F07F638AE5069397C70093D7C70051
:1014180013F7F57F137414006FF01FDF3367D701DC
:101428003338E000B309E801B3B7E9013386670050
:1014380093178600E3D807FA938414009307F07F84
:101448006392F41E137414001307F07F93070000CF
:10145800130800006FF05FDB63980712630008460B
:10146800131836009317D701135838003368F8005B
:101478001384060093573700B367F800E38407FC2A
:10148800130400001307F07FB707080013080000D3
:101498006FF09FD7370680FF1306F6FF33F6C700B5
:1014A80093F77900B384E440E39407D06FF01FF416
:1014B80013850900EF009033130785019307F001A6
:1014C800E3DAE7C8130685FFB397C900930900005C
:1014D8006FF0DFC93368D701333800016FF09FC45C
:1014E800131835009317D301135838003368F800E0
:1014F800935733006FF0DFF0B309DF413309E3405E
:1015080033363F013309C9409317890063C407265E
:1015180033E82901E31808C2930700001304000008
:101528006FF09FEEB385984063880416B706800075
:101538009307F07F3363D300638AF824930780030B
:1015480063CAB7289307F00163C4B734930700024E
:10155800B387B7403318F300B356BF00B317FF0083
:101568003368D800B339F0003353B3003368380117
:1015780033076700B309D801B3B7D9013386E70049
:10158800938408006FF0DFEAE31C08EE13183500B7
:101598009317D301135838003368F8009357330072
:1015A8006FF09FED370580009307F07F3363A3004A
:1015B800E398F8DA131636001318D70113563600D5
:1015C8003368C80093573700138406006FF0DFEACA
:1015D800130717FE9306000233D7E700630AD60005
:1015E800930600043386C6403396C700B3E9C900A2
:1015F80033383001B369E800130600009304000093
:101608006FF05FDEB309DF01B307E30033BFE90121
:101618003386E7019317860093041000E3D407DCB0
:1016280093042000B70780FF9387F7FFB377F6008E
:1016380013D7190013F81900336807019399F701B4
:10164800B3E9090113D617006FF01FB6138805FE1A
:1016580093070002B3590701638AF5009307000452
:10166800B385B7403317B700B3EEEE003338D00177
:10167800336838016FF01FAB3363E3013338600020
:10168800B3890E41B3B73E013306F740938408008F
:10169800138406006FF0DFA9B367E3016388071CB2
:1016A8009387F5FF638407229306F07F6380D50E46
:1016B800938507006FF09FE893070002B387B74050
:1016C800B3D9BE003318F700B39EFE003368380163
:1016D8003357B700B339D001336838013303E30017
:1016E8006FF05FD4131836009317D70113583800DA
:1016F80033E8070113840600935737006FF05FD073
:10170800638607083367D701E31C07D6131535002E
:101718001318D301135535003368A80093573300C5
:101728006FF09FD5E30A08DE131836009317D70128
:10173800135838003368F8001384060093573700AD
:101748006FF09FCCB309DF41B307E340333F3F015C
:101758003386E741930410006FF09F9D13183500FE
:101768009316D3011358380033E806019357330012
:101778006FF09FD0B389EE413306674033B93E011D
:1017880033092641138406006FF0DF9B13163600D9
:101798001318D701135636003368C800935737001B
:1017A8006FF09FCDB309DF41B307E34033363F0104
:1017B8003386C7409317860063D6070CB389EE417A
:1017C800B3076740B3BE3E013386D7411384060092
:1017D8006FF09F9D3363E301333860006FF09FD94A
:1017E800138805FE93070002B3590301638AF500C5
:1017F80093070004B385B7403313B300336F6F000A
:101808003338E001336838016FF09FE7B389EE4160
:10181800B3076740B3BE3E013386D7411384060041
:10182800930410006FF0DF90131836009317D70158
:10183800135838003368F800935737006FF0DFBC4F
:10184800B309DF01B307E30033BFE9013386E701DA
:1018580093178600E3D807B8B70780FF9387F7FF89
:101868003376F600930410006FF0DFB713163600D6
:101878001318D701135636003368C800935737003A
:101888006FF01FB833E8C900E30808C86FF09FB5C8
:10189800138805FE93070002B3590301638AF50014
:1018A80093070004B385B7403313B300336F6F0059
:1018B8003338E001336838016FF0DFCB13040000E0
:1018C8001307F07FB70708006FF01F94B309DF0113
:1018D800B307E300B3BED9013386D7016FF09FD3B6
:1018E80093D74501B70610001387F6FF93F7F77FE4
:1018F8001306E03F3377B70093D5F501635EF60032
:101908001306D041635EF600370500801345F5FFE6
:101918003385A5006780000013050000678000007C
:10192800130630433306F6401308F0013367D70037
:101938006350C80293063041B387F640B357F700A7
:101948003305F040E39C05FC138507006780000021
:101958009387D7BEB317F7003355C500B3E7A70081
:101968006FF01FFE130101FF2326110023248100BD
:1019780023229100630A05049357F541B3C4A700D5
:10198800B384F4401304050013850400EF000066D7
:101998009306E041B386A6409307A0001354F401D0
:1019A80093F6F67F63C4A7061307B0003307A74072
:1019B800B3D7E400130555019397C700B394A40067
:1019C80093D7C7006F00400113040000930600007E
:1019D80093070000930400009397C700939646016D
:1019E80093D7C7001314F401B3E7D700B3E7870010
:1019F8008320C10003248100138504009385070018
:101A0800832441001301010167800000130555FF7D
:101A1800B397A4009397C70093D7C7009304000017
:101A28006FF09FFB93567501B70780009387F7FF08
:101A380013D6750193F6F60F1308F00FB3F8A70045
:101A48001357F501B3F7B7001376F60F13D5F50161
:101A5800638A060363020603639A06026314060098
:101A6800638A0704638208046300A706130510004D
:101A7800631E070267800000E38007FE1305E0FF8E
:101A880067800000E39C08FE630CD602631406001E
:101A9800E38E07FCE31CA7FC635AD6026318050013
:101AA8001305100067800000E31605FC1305F0FF1E
:101AB8006780000013050000E39A08FA67800000B9
:101AC800E38A07FC6FF09FFB9306000063C8C6001B
:101AD800E3EE17F913050000E3FEF8F8E30807FC46
:101AE800130507006780000093567501B70780004B
:101AF8009387F7FF13D6750193F6F60F1308F00FC7
:101B0800B3F8A7001357F501B3F7B7001376F60F2C
:101B180013D5F50163820605630E06016392060478
:101B280063100602639E070013050000639E080009
:101B380067800000E38407FE13052000678000002B
:101B4800638E08026304A70413051000E30207FE6E
:101B58001305F0FF67800000E39008FE6304D602D7
:101B680063140600E38207FEE310A7FE6352D60261
:101B7800E31005FE1305100067800000E30A05FC6A
:101B880067800000E38207FE6FF01FFB93060000EA
:101B980063C8C600E3EA17FB13050000E3FAF8F888
:101BA800E30807FA1305070067800000370680007E
:101BB800135775019307F6FF1377F70F9305E0079F
:101BC800B3F6A7009357F50163FEE5009305D00926
:101BD80063FEE500370500801345F5FF3385A70050
:101BE8006780000013050000678000009305500916
:101BF800B3E6C60063C0E502130660093307E64092
:101C080033D7E6003305E040E39007FE13050700ED
:101C1800678000001307A7F63397E6006FF09FFE72
:101C2800135775011377F70F130101FF9307170077
:101C380023248100232291001314950023261100E8
:101C480093F7E70F135494009354F5016382070444
:101C580093573400130707381314D4019397C70018
:101C68001317470193D7C7001395F401B3E7E700AB
:101C7800B3E7A7008320C1001305040003248100F3
:101C88008324410093850700130101016780000048
:101C9800631207046308040613050400EF00003507
:101CA8009307A00063C6A7061307B0003307A74031
:101CB800930755013357E4003314F4009317C70012
:101CC800130790383307A74093D7C7001377F77FD8
:101CD8006FF0DFF86302040213573400B7070800F7
:101CE800B367F7009397C7001314D40193D7C700BD
:101CF8001307F07F6FF09FF61307F07F930700003C
:101D08006FF0DFF513070000930700006FF01FF571
:101D1800130755FF3317E400130400006FF01FFA90
:101D280093D645019397C50093F6F67F93D7C700DE
:101D380013861600939737001357D5011376E67F5D
:101D480093D5F5013367F700931835006304060A45
:101D5800138806C89307E00F63D4070393070000AE
:101D6800139597009306F00F9396760113559500F7
:101D78009395F5013365D5003365B500678000009C
:101D8800635E000F9317650013173700B337F00031
:101D9800B3E7E70093D8D801B3E7170113F7770043
:101DA8006306071613F7F700930640006304D7008D
:101DB800938747003707000433F7E70063080714E1
:101DC800130718001306F00F9376F70FE308C7F808
:101DD8009397670093D7970013959700939676018A
:101DE800135595009395F5013365D5003365B50016
:101DF80067800000B3671701639A0602638E0704C1
:101E0800930750009397670093D79700139597000F
:101E180093F6F60F93967601135595009395F50171
:101E28003365D5003365B50067800000E38807F2A5
:101E3800B7074000139597009306F00F9396760125
:101E480093050000135595009395F5013365D5006A
:101E58003365B5006780000093070000139597006D
:101E68009306000093967601135595009395F50116
:101E78003365D5003365B50067800000930790FE91
:101E88006342F8069307E00137068000B3870741ED
:101E98001305F0013366C700635AF5041307E0FF22
:101EA80033070741130500023357E6006388A7008C
:101EB800938626CAB316D600B3E8D800B337100104
:101EC800B3E7E70013F7770013080000E31C07ECFB
:101ED8001397570093061000E34C07EE9306000093
:101EE8006FF05FF2930600006FF09FF1938626C8AB
:101EF8003397D8003337E000B316D600B3D8F800CC
:101F0800B367D700B3E7F8006FF0DFFB930608006C
:101F18006FF05FEF130605001305000093F6150038
:101F2800638406003305C50093D515001316160003
:101F3800E39605FE678000006340050663C6050654
:101F480013860500930505001305F0FF630C0602D0
:101F580093061000637AB6006358C0001316160083
:101F680093961600E36AB6FE1305000063E6C50003
:101F7800B385C5403365D50093D6160013561600B1
:101F8800E39606FE6780000093820000EFF05FFB97
:101F980013850500678002003305A04063D805005B
:101FA800B305B0406FF0DFF9B305B040938200008D
:101FB800EFF01FF93305A04067800200938200000C
:101FC80063CA0500634C0500EFF09FF71385050011
:101FD80067800200B305B040E35805FE3305A04012
:101FE800EFF01FF63305B04067800200B707010025
:101FF8006374F5049307F00F1307000263EEA7005C
:1020080097370000938707D8B387A70003C5070051
:102018003305A740678000001355850097370000F7
:10202800938747D6B387A70003C507001307800126
:102038003305A74067800000B70700016362F50217
:1020480013558501973700009387C7D3B387A70037
:1020580003C50700130780003305A7406780000009
:1020680013550501973700009387C7D1B387A70099
:1020780003C50700130700013305A7406780000068
:10208800130101FE232C8100232A9100232821011A
:10209800232631012324410123225101232E11003B
:1020A80013090500938905001304060093840600AC
:1020B800EF0000249387018103A707009307F0FF2F
:1020C800130A0500938A05006306F708130604003F
:1020D800938604001305040093850400EF2050360E
:1020E800631A0506130609009386090013050900FB
:1020F80093850900EF20D0341306000093060000F2
:102108006310050E1305090093850900EF20D01A06
:102118006318050613060000930600001305040063
:1021280093850400EF2050196304050C130504007F
:1021380093850400EF104045630E05001306000068
:10214800930600001305040093850400EFE00FF1E7
:10215800634205128320C1010324810113050A008B
:1021680093850A0083244101032901018329C100C1
:10217800032A8100832A41001301010267800000BD
:1021880013050A0093850A00EF100040630C05064A
:10219800130600009306000013050A0093850A0041
:1021A800EF209011E31805FA13050900938509003B
:1021B800EF10803DE30005FA130504009385040041
:1021C800EF10803CE30805F8EF20D02C930720029D
:1021D8002320F500130A0000930A00006FF09FF710
:1021E8001305040093850400EF20100DE31405F691
:1021F80097370000938707C903AA070083AA4700F7
:102208006FF05FF51305090093850900EF10C037DB
:10221800E30005F81305040093850400EF10C036A9
:10222800E30805F613060A0093860A0013050A0058
:1022380093850A00EF20D02063160508EF2090252B
:10224800930720022320F5001306000093060000E0
:102258001305090093850900EFE04FE0634C050280
:1022680097370000938707C303AA070083AA47008C
:102278006FF05FEEEF201022930710022320F50085
:1022880097370000938787C003AA070083AA4700EF
:102298006FF05FEC1305040093850400EF108031A4
:1022A8001306040093860400EF201001E30A05FAE0
:1022B80097370000938787BD03AA070083AA4700C2
:1022C8006FF05FE9EF20101D93071002130600005E
:1022D800930600002320F5009385060013050600E9
:1022E800EF105073130A0500938A05006FF09FE6FC
:1022F80037080080130101F81348F8FF2328210745
:1023080033F90601232E1106232C8106232A910670
:10231800232631072324410723225107232061075D
:10232800232E7105232C8105232A91052328A10535
:102338002326B105B367C900638007103374B8005A
:10234800B707F07F938A0500130A050063DC87044A
:10235800370810C0330804013368A800B705F03FF8
:10236800130500006314080E8320C10703248107A6
:1023780083244107032901078329C106032A81060B
:10238800832A4106032B0106832BC105032C8105F3
:10239800832C4105032D0105832DC1041301010878
:1023A800678000006300F40AE3C427FBB707F07FE7
:1023B800630EF9249384050093090500930C060025
:1023C800938D0600130D000063C40A0C63940C106F
:1023D800B706F07F6306D91AB706F03F630AD91C1F
:1023E800B7060040E380DD60B706E03F6394DD0E8A
:1023F80063C20A0E032481078320C107032901074A
:10240800032A8106832A4106032B0106832BC10573
:10241800032C8105832C4105032D0105832DC1045F
:1024280013850900938504008329C1068324410785
:10243800130101086F00506913050000B705F03F4C
:102448006FF09FF263140500E35224F70324810719
:102458008320C10783244107032901078329C10673
:10246800032A8106832A4106032B0106832BC10513
:10247800032C8105832C4105032D0105832DC104FF
:102488001735000013050587130101086F10401167
:10249800B70640436350D918B706F03F634AD902DC
:1024A80093564941938616C013064001E358D65403
:1024B80013064003B306D64033D6DC00B316D60065
:1024C800639896011376160013032000330DC3405A
:1024D800E3840CF01385090093850400EF10000ACB
:1024E800630C0A0413DEF401130EFEFFB366CD017C
:1024F80063860612B706E04163D42615B706F04393
:10250800E3DC26353707F03F635AE40C63DC0D083B
:10251800973700009387879A03A6070083A647008A
:102528001305060093850600EFE04FC36FF0DFE365
:10253800EF10C00463140A0E630A04009396240083
:1025480093D626003706F03FE39EC6F863CC0D0805
:10255800E3DC0AE0B70710C0B307F400B3E7A7014C
:10256800E396074E1306050093860500EFE09FAF3C
:102578001306050093860500EF10D0496FF0DFDEE3
:10258800370510C03305A40033653501E30605EAB5
:102598003707F03FE342E42A93850D001305000056
:1025A800E3D40DDC13050000930500006FF0DFDBBA
:1025B8001385090093850400E3D80DDA97370000E6
:1025C8009387478C03A5070083A547001386090056
:1025D80093860400EF1010446FF01FD9E34AB0F35C
:1025E8006FF05FFC173700001307C789930C0500CD
:1025F80093870500032507008325470013860C00F1
:1026080093860700EF1010416FF09FF4E30406DA99
:102618006FF01FD4130D20006FF05FDB13860900E5
:10262800938604001385090093850400EFE09FA3B7
:102638001306050093860500EF10D03D6FF0DFD23A
:10264800B706F07FB3F49600130600006394040203
:10265800973600009386068A03A6060083A64600DE
:102668002324C101EFE08FAF032E810013840500FE
:102678001306B0FCB7051000935E44411388F5FFBC
:10268800B7A60300938E1EC033780401370CF03FC1
:102698009386E688B38ECE00336C8801E3D8061B98
:1026A800B7B60B0093869667E3DE063B972A0000D1
:1026B800938A4A7D938E1E00330CBC4083A70A0080
:1026C80003A84A0023280100232A0100232C010221
:1026D800232E0102930900002324F100232601017F
:1026E800032481008324C10093050C001306040011
:1026F80093860400232AD1032328C1031309050064
:10270800EFE05F96130B0500938B0500130604009A
:10271800938604001305090093050C002324810007
:1027280023269100EF10C0261306050093860500A6
:1027380003A50A0083A54A0093040000EF10902D1A
:102748001306050093860500232CA100232EB10053
:1027580013050B0093850B00EFE04FA0135F1C409F
:10276800B7060020336FDF00B7060800330FDF001D
:10277800B3093F01130A05009386090013060000F8
:102788001385040013840500EFE04F9D1306050030
:102798009386050013050B0093850B00EFE09F8CD3
:1027A800032681008326C100130B0500938B0500C7
:1027B8001305000093850900EFE0DF8A1306050082
:1027C800938605001305090093050C00EFE09F8927
:1027D8001386040093060400EFE04F9813060500E3
:1027E8009386050013050B0093850B00EFE09F8788
:1027F800032881018328C101972B0000938B0B7359
:102808001306080093860800EFE04F9513060A00A8
:10281800930604002324A1002326B10013050A000F
:1028280093050400EFE08F93972600009386066DCA
:1028380003A6060083A64600130905009389050030
:10284800EFE0CF91972600009386C66B03A606009B
:1028580083A64600130B0000130C0000EF10401372
:102868001306090093860900EFE04F8F97260000B2
:102878009386C66903A6060083A64600EF1040119A
:102888001306090093860900EFE04F8D9726000094
:102898009386466803A6060083A64600EF10400FFD
:1028A8001306090093860900EFE04F8B9726000076
:1028B8009386C66603A6060083A64600EF10400D61
:1028C8001306090093860900EFE04F899726000058
:1028D8009386466503A6060083A64600EF10400BC4
:1028E8001306090093860900232CA100232EB100AA
:1028F8001305090093850900EFE04F86032781013E
:102908008327C101130605009386050013050700F8
:1029180093850700EFE08F8413090500938905006C
:10292800138604009306040013050A0093050400A7
:10293800EF100006032681008326C100EFE00F8216
:102948001306090093860900EF1080041309050097
:102958009389050013860400930604001385040078
:1029680093050400EFD09FFF03A60B0083A64B003E
:102978002324A1022326B102EF10800113060900C7
:1029880093860900232C2101232E3101EF104000EA
:102998001389050013060B009386050013850400B0
:1029A80093050400EFD09FFB03A60B0083A64B0002
:1029B8002320A1022322B10213050B00930509006D
:1029C800EFE04FEA032F8102832FC10213060F00A5
:1029D80093860F00EFE00FE91306050093860500C4
:1029E800032581018325C101EFE0CFE713060A0023
:1029F80093060400EFD09FF61304050093840500A6
:102A0800032581008325C10013060B0093060900E6
:102A1800EFD0DFF4130605009386050013050400C4
:102A280093850400EF00D076032B0102832B41022B
:102A3800130405009384050013060500938605001A
:102A480013050B0093850B00EF0090749726000088
:102A58009386464E03A6060083A6460013050C007F
:102A6800138A0500EFD09FEF13090500938905002D
:102A780013060B0093860B0013050C0093050A0040
:102A8800EFE04FDE130605009386050013050400EA
:102A980093850400EFE00FDD972600009386064A31
:102AA80003A6060083A64600EFD05FEB972600003A
:102AB8009386464903A6060083A64600130405002C
:102AC8009384050013050C0093050A00EFD01FE955
:102AD800130605009386050013050400938504007A
:102AE800EF00106B032681038326C103EF00506AB1
:102AF800832E4103130B0500938B050013850E00ED
:102B0800EFE05FE6130405009384050013060B004D
:102B180093860B001305090093850900EF005067A1
:102B28000326010183264101EF0090661306040085
:102B380093860400EF00D065130600001305060015
:102B4800938604001306040093840500130405000B
:102B5800EFE04FD10326010183264101EFE08FD03A
:102B68001306090093860900EFE0CFCF130605008E
:102B78009386050013050B0093850B00EFE08FCEBD
:102B8800032E010313090500938905001303FDFFB4
:102B9800336EC30163180E4897260000938686316A
:102BA80083A7060003A846002324F1002326010179
:102BB800130C000013060C0093860D0013850C00FF
:102BC80093850D00EFE00FCA1306040093860400F6
:102BD800EFD0DFD8130B0500938B050013860C008C
:102BE80093860D001305090093850900EFD01FD7C0
:102BF800130605009386050013050B0093850B004B
:102C0800EF001059130905009389050013060C00FD
:102C180093860D001305040093850400EFD01FD49C
:102C28001306050093860500130405009384050028
:102C38001305090093850900EF009055B7079040E8
:102C4800130A0500138B0500938B050063C4F53642
:102C5800B387F540B3E7A7006394075E97270000A2
:102C68009387C72E03A6070083A64700130509000C
:102C780093850900EF00D051130D0500938D0500D1
:102C8800130604009386040013050A0093050B003D
:102C9800EFE04FBD130605009386050013050D00F0
:102CA80093850D00EF10106A634CA05893D74B41E1
:102CB80093F7F77F37051000938727C0B357F54080
:102CC800B387770113D747411377F77F130717C0E7
:102CD800130AF5FFB355EA4093C5F5FFB3F5F500C0
:102CE80033FA470193074001336AAA003387E74064
:102CF8001306000093860500335AEA4063D40B009C
:102D0800330A40411305040093850400EFE08FB5B2
:102D18001306050093860500130405009384050037
:102D28001305090093850900EF009046138B0500F1
:102D3800931D4A011727000013074722032607009F
:102D480083264700130C000013050C0093050B00A5
:102D5800EFD0DFC0130D0B00938B0500130B05009C
:102D6800130604009386040013050C0093050D0058
:102D7800EFE04FAF13060500938605001305090021
:102D880093850900EFE00FAE172700001307871D92
:102D98000326070083264700EFD05FBC17270000F3
:102DA8001307C71C032607008326470013040500E2
:102DB8009384050013050C0093050D00EFD01FBA8E
:102DC8001306050093860500130504009385040087
:102DD800EF00103C13090500938905001306050050
:102DE8009386050013050B0093850B00EF00503AFE
:102DF80013060B0093860B0013040500938405004B
:102E0800EFE04FA613060500938605001305090099
:102E180093850900EFE00FA5130B0500938B0500C0
:102E28001306040093860400130504009385040028
:102E3800EFD0DFB2972700009387C71303A60700D8
:102E480083A647001309050093890500EFD01FB139
:102E5800972700009387871203A6070083A64700D9
:102E6800EFE04FA01306090093860900EFD01FAFCB
:102E7800972700009387071103A6070083A647003A
:102E8800EF0010311306090093860900EFD01FAD3B
:102E9800972700009387870F03A6070083A647009C
:102EA800EFE04F9C1306090093860900EFD01FAB93
:102EB800972700009387070E03A6070083A64700FD
:102EC800EF00102D1306090093860900EFD01FA903
:102ED8001306050093860500130504009385040076
:102EE800EFE04F981306050093860500130C0500C4
:102EF800938C05001305040093850400EFD01FA6EA
:102F0800972600009386860903A6060083A6460036
:102F1800130905009389050013050C0093850C001F
:102F2800EFE04F941306050093860500130509008A
:102F380093850900EF10002E1309050093890500F9
:102F480013060B0093860B001305040093850400F9
:102F5800EFD0DFA013060B0093860B00EF00502381
:102F680013060500938605001305090093850900DB
:102F7800EFE04F8F1306040093860400EFE08F8E76
:102F8800938605001306050083A54A0003A50A00D9
:102F9800EFE04F8DB387BD0093D647416350D032E1
:102FA80093850700032681008326C100EFD01F9B6D
:102FB8006FF08FBB93971500B7D6904093D7170043
:102FC8009386F6BF63D2F626B7376F3F93870740DD
:102FD800B387F500B3E7A700639007021306040060
:102FE80093860400EFE00F88130609009386090012
:102FF800EF105035E34C05CA17240000130484F57C
:103008000326040083264400032581008325C1008C
:10301800EFD0DF940326040083264400EFD01F94EA
:103028006FF08FB483A70A0003A84A002324F10095
:10303800232601016FF0DFB763D60DD6B7050080F0
:1030480013050000B3C5B5016FF00FB2972A000051
:10305800938A4AE36FF08FE6B706F03F1386E6FFE0
:10306800635686CA63CC86D6972A0000938A8AE17B
:1030780003A60A0083A64A002328C101EFD09FFEB9
:1030880097260000938606E403A6060083A646005A
:103098001304050093840500EFD05F8C9726000089
:1030A8009386C6E203A6060083A646001309050018
:1030B800938905001305040093850400EFD01F8A47
:1030C80097260000938606E103A6060083A646001D
:1030D8002324A1002326B1001305040093850400CE
:1030E800EFD0DF879386050097250000938505DFDD
:1030F8001306050003A5050083A54500EFD09FF63C
:103108001306040093860400EFD05F8593860500BC
:1031180097250000938505DD1306050003A5050026
:1031280083A54500EFD01FF4130B0500938B050012
:103138001306040093860400130504009385040015
:10314800EFD0DF81130605009386050013050B00F9
:1031580093850B00EFD09F8097260000938606D9B1
:1031680003A6060083A64600EFD04FFF0327810081
:103178008327C10013060500938605001305070081
:1031880093850700EFD01FEE130605009386050010
:10319800130B0500938B050013050900938509009F
:1031A800EF00007F13060000938609001305060050
:1031B800130406001306090093840500EFD09FEA64
:1031C800130605009386050013050B0093850B0075
:1031D800EFD05FE91309050093890500032E01016B
:1031E8006FF0DF9A1386090013850900938604009F
:1031F80093850400EFD08FF66FF00F97639A0CB2A7
:10320800B306D6403356D940B316D600138D0C00FA
:10321800638426016FF04F9C137616001303200079
:10322800330DC3406FF04F9B3707E03F930D00000D
:10323800130A0000E350F7B093D747416FF09FA7F8
:1032480017240000130484C76FF09FDB9307100056
:103258006304FD006FF04F91B7070080B3C5B70056
:103268006FF08F9097260000938646C383A70600C9
:1032780003A84600972600009386C6C22328F100BB
:10328800232A010183A7060003A846009726000009
:103298009386C6C1232CF102232E010383A70600BF
:1032A80003A84600B70904002324F10023260101DE
:1032B800972A0000938A0ABD6FF08FC213060A008E
:1032C800EF0080516FF01FCE130101FF3707F07F29
:1032D8002324810023229100232611003378B7008C
:1032E80093840500130405006308E820938705000C
:1032F80093060500635AB01413DE4541630E0E248D
:10330800370710001306F7FFB3F7C700B3E7E70066
:10331800130E1EC01397170013761E0093D7F601DD
:10332800B307F70013971600630A06001357F7014F
:1033380093971700B387E70013972600135E1E4084
:1033480093056001930E00009306000037062000E5
:103358003385C6001358F7019385F5FF63C8A700A6
:10336800B387A740B306C500B38ECE009397170066
:10337800B307F8001317170013561600E39A05FC55
:103388001303000013080002370600806F00400294
:10339800638ED7121355F701939717001308F8FF98
:1033A800B387A700131717001356160063060804FF
:1033B8003305B600E3DEF6FCB305C50093880600C6
:1033C800634E050EB387D740B336A700B387D740FF
:1033D8003307A7401355F701939717001308F8FF11
:1033E8003303C30093860800B387A7001317170099
:1033F80013561600E31E08FAB3E7E7006394070EB6
:103408001358130013D71E40B704E03F93FE1E0065
:10341800B304970063860E00B70700803368F8008E
:1034280013174E011304080033079700130504000F
:103438008320C100032481008324410093050700F1
:103448001301010167800000139715001357170037
:103458003368A70013870500E30A08FC639C050C82
:1034680093D5B6009387B7FE138705009396560148
:10347800E38805FE13D64501631A060E13060000FD
:103488006F00800013060500131717009315B70087
:1034980013051600E3D805FE9308000213880600FA
:1034A800B388A84093050700B396A60033571801C0
:1034B800338EC740B367B7006FF09FE493C8F5FF3A
:1034C80093D8F801B38816016FF0DFEFE364A7EC37
:1034D800B305C500E34405FE938807009307000081
:1034E8006FF01FEF9307F0FF630EF3061308130046
:1034F800135818006FF01FF1130605009386050096
:10350800EFD0CFC51306040093860400EF004048AF
:1035180013040500130504008320C100032481005F
:103528001387050083244100930507001301010157
:10353800678000001306050093860500EFD09FB250
:103548001306050093860500EF00D04C1304050010
:10355800138705006FF09FED1387050093070000A0
:103568006FF0DFF1938E1E006FF0DFE9138806001D
:10357800930800021306F0FF6FF05FF393951500B0
:1035880093D51500678000009395150093D5150015
:10359800370510803385A5001355F50167800000B5
:1035A80097270000938707A003A5070083A5470076
:1035B8006780000013D74541130101FD1377F77F9A
:1035C800232481022326110223229102232021038E
:1035D800232E3101130617C0930830019387050085
:1035E80093060500138E050013D4F50163CCC816A5
:1035F8006348060CB70510009385F5FFB3D5C540A1
:1036080033F5F5003365D50093880600138307006A
:103618006306050893D5150033F8F5003368D8001C
:10362800630608029306E7BE370E040093B6160039
:1036380093C5F5FF37080080B306D040B3F7F5000F
:103648003356CE403378D80033EEC70097270000B2
:103658009387C7951313340033836700032403004B
:10366800832443001306080093060E001305040084
:1036780093850400EF00C0312324A1002326B10064
:10368800032581008325C1001306040093860400E6
:10369800EFD05F9D93080500138305008320C102C6
:1036A8000324810283244102032901028329C101E1
:1036B80013850800930503001301010367800000C8
:1036C800B704008093C4F4FF33F7B4003367A7004E
:1036D8009308050013830500E30207FC9397C500D0
:1036E80093D7C70033E7A700B307E040B3E7E70085
:1036F800972600009386868B13173400B386E6005E
:1037080093D7C70003A9060083A946003707FEFF21
:10371800370308003377B70033F367003363E300F8
:103728009306030013060500938509001305090095
:10373800EF0000262324A1002326B10003258100E1
:103748008325C1001306090093860900EFD09F91D5
:10375800B3F4B4001313F40133E3640093080500D1
:103768006FF0DFF39308300363D6C80213070040F5
:103778009308050013830500E312E6F2130605001B
:1037880093060E00EF00C020930805001383050080
:103798006FF0DFF01307D7BE1306F0FF3356E600CD
:1037A800B375A6009308050013830700E38805EEA8
:1037B80013561600B377A60013080500E38807E838
:1037C800370800401346F6FFB376A6003357E840A3
:1037D80033E8E6006FF09FE7130101FF93D74541F7
:1037E800232481002326110093F7F77F1304060092
:1037F8006390070A9397150093D71700B3E7A700BC
:1038080063800708971700009387477B03A6070084
:1038180083A64700EFD08F94B747FFFF938707CB66
:1038280013870500634AF41293D7454193F7F77F4E
:103838009387A7FCB307F4009306E07F63CEF606F0
:10384800634AF00E9306B0FC63D6D70AB7C70000E8
:103858009387073563C28706971700009387876F9A
:1038680003A8070083A8470063CA051003A607003A
:1038780083A647001305080093850800EFD00F8E34
:103888008320C10003248100130101016780000027
:103898009306F07F13870500E39ED7F8130605000B
:1038A80093860500EF00C00E8320C1000324810029
:1038B80013010101678000009717000093870760D4
:1038C80003A8070083A84700E3D205FA17170000EA
:1038D8001307476F032807008328470003A607003C
:1038E80083A647001305080093850800EFD00F87CB
:1038F8006FF01FF9B70510809385F5FF938767036D
:103908003377B70093974701B3E7E700171700002D
:103918001307476C03260700832647009385070093
:10392800EFD0CF838320C10003248100130101015C
:10393800678000008320C10003248100B705108040
:103948009385F5FF3377B70093954701B365B700C3
:103958001301010167800000971600009386865FB7
:1039680003A6060083A64600EFC05FFF8320C100C0
:10397800032481001301010167800000171700006C
:103988001307C76403280700832847006FF01FEE5A
:1039980037081000130101FE1308F8FF3377B80049
:1039A800232A91003378D80093D4450113D34601D4
:1039B800131E3700232631011357D5011318380079
:1039C8009357D60193F4F47F1373F37F232E1100DA
:1039D800232C81002328210193D9F50193DEF601D8
:1039E8003367C701131F350033E80701931F3600FB
:1039F800338E64406384D91D6358C017630A03205B
:103A0800B70680009307F07F3368D800638EF440D0
:103A18009307800363CAC73D9307F00163C6C75580
:103A2800130500023305C541B3D7CF01B316A8006B
:103A38003399AF00B3E6F60033392001B357C80114
:103A480033E926013307F74033092F41B3372F01F4
:103A58003306F7409317860063D2072A370780009A
:103A68001307F7FF3374E600630E043413050400EC
:103A7800EFE0CFD7130785FF93070002B387E7402E
:103A8800B357F9003316E400B3E7C7003319E90068
:103A9800634C973033059740130615001307F00160
:103AA8006346C744130700023307C740B356C9002B
:103AB8003319E9003397E7003367D700333920011A
:103AC8003369270133D6C700930400009377790040
:103AD800638007021377F90093074000630AF70031
:103AE8001307490033392701330626011309070054
:103AF8009317860063D80720138514009307F07F77
:103B080093850900630CF524B70780FF9387F7FFB7
:103B1800B377F6009398D701135939009397970014
:103B2800B3E8280193D7C7001375F57F9396C700AC
:103B3800131545018320C1010324810193D6C600D2
:103B48009395F501B3E6A600B3E6B60083244101D8
:103B5800032901018329C100138508009385060004
:103B6800130101026780000063140E0C1383140014
:103B78001373E37F63100328B367E701B368F801A1
:103B88006396041E6380074C638808503309FF411D
:103B9800B307074133362F013386C7409317860092
:103BA80063D4075A3389EF41B307E84033B62F018E
:103BB8003386C74093890E006FF05FF1635AC00FD8
:103BC8006308030CB70680009307F07F3368D800BA
:103BD800638EF4449307800363CCC7159307F00101
:103BE80063DAC73F13090EFE93070002B356280194
:103BF800630AFE00130900043309C9413319280177
:103C0800B3EF2F013339F0013369D9006F00C012C7
:103C1800B367F801638607229307FEFF63840744AE
:103C28009306F07F6302DE20138E07006FF05FDEDD
:103C3800B305934063960428B367E7016382073CA2
:103C48009387F5FF638C07509306F07F6382D5282E
:103C5800938507009307800363CEB7329307F0017B
:103C680063C2B74A93070002B387B7403319F70016
:103C7800B356BF00B317FF003369D900B337F0005C
:103C88003357B7003369F9003308E8406F00003153
:103C9800B367F8016384073E9307FEFF6382072832
:103CA8009306F07F6304DE38138E07006FF09FF2EF
:103CB80063160E1A9386140093F7E67F639A073EFD
:103CC800B367E701639E04346388074AB367F80162
:103CD8006384073C3309FF01B3070701333FE90158
:103CE8003386E7019317860063DA0700B70780FF7A
:103CF8009387F7FF3376F6009304100093777900E3
:103D0800E39A07DC9317D60193583900B3E8F80013
:103D1800935736001307F07F638AE4069397C7002A
:103D280093D7C70013F5F47F938509006FF01FE060
:103D38003369F801333920013309E901B337E9015F
:103D48003386E70093178600E3DA07FA93841400B2
:103D58009307F07F6396F41E938509001305F07F9F
:103D680093070000930800006FF05FDC639C070A6C
:103D780063840846931636009317D80193D6360005
:103D8800B3E8D70093890E0093573800B3E7F800DB
:103D9800E38407FC930500001305F07FB7070800CC
:103DA800930800006FF09FD8370680FF1306F6FFD0
:103DB80033F6C70093777900B384E440E39C07D0D7
:103DC8006FF05FF413050900EFE04FA213078501B8
:103DD8009307F001E3D2E7CA130685FFB317C900BA
:103DE800130900006FF0DFCA3369F8013339200185
:103DF8006FF09FC53309FF413306074133342F0164
:103E0800330486409317840063CC072CB368890079
:103E1800E39C08C493070000930900009304000082
:103E28006FF0DFEFE39808F6131535009317D70105
:103E380013553500B3E8A700935737006FF01FF507
:103E4800131535009317D70113553500B3E8A700AC
:103E580093040E00935737006FF0DFEB3305934060
:103E6800638A0414B70680009307F07F3367D7008E
:103E78006306F3389307800363C0A7289307F0010C
:103E880063C6A73293070002B387A7403319F70028
:103E9800B356AF00B317FF003369D900B337F0004A
:103EA8003357A7003369F9003308E8003309F901EB
:103EB800B337F90133860701930403006FF09FE8D5
:103EC800B70680009307F07F3367D700E314F3D871
:103ED8009317360093D737009318D801B3E8170122
:103EE80093890E00935738006FF05FEA130715FEA9
:103EF8009306000233D7E700630AD600930600044E
:103F08003386C6403396C7003369C9003339200168
:103F18003369E90013060000930400006FF01FDE08
:103F28003309FF01B30707013336E9013386C700B8
:103F38009317860093041000E3D207DC9304200053
:103F4800B70780FF9387F7FFB377F6001357190079
:103F580013791900336927019398F70133E9280188
:103F680013D617006FF09FB613090EFE93070002D1
:103F7800B3562801630AFE00130900043309C94136
:103F880033192801B3EF2F013339F0013369D90010
:103F98006FF09FAB3369E7013339200133892F4133
:103FA800B3B72F013306F8409304030093890E003A
:103FB8006FF05FAAB367E701638C071C9307F5FFEF
:103FC800638407229306F07F6304D51613850700E0
:103FD8006FF05FEA93070002B387C741B316F80092
:103FE8003399FF0033D6CF01B3E6C6003339200139
:103FF800B357C80133E926013307F7006FF0DFD361
:104008009317360093D737009318D801B3E81701F0
:10401800938405009357380093890E006FF09FCF63
:10402800638807103369F801E31609D613153500BC
:104038009317D70113553500B368F5009357370028
:104048006FF0DFD463860810931636009317D801F3
:1040580093D63600B3E8D70093890E0093573800FB
:104068006FF0DFCB3309FF41B3070741333F2F011F
:104078003386E741930410006FF0DF9D1315350078
:104088009317D70113553500B368F50093040E0054
:10409800935737006FF01FC8131535009317D701D2
:1040A80013553500B3E8A700935737006FF01FC7C3
:1040B8009307F07FE382F6CA3309FF013336E9013B
:1040C800B3070701B387C7009398F701135919007D
:1040D80033E9280113D61700938406006FF01FC236
:1040E8003389EF413307E84033B62F013304C74023
:1040F80093890E006FF05F973369E7013339200128
:104108006FF0DFDA938705FE93060002B357F700D6
:10411800638AD50093060004B385B6403317B70009
:10412800336FEF003339E0013369F9006FF01FE7AF
:104138009317360093D737009318D801B3E81701BF
:10414800935738006FF09FC4B368C900E39808BA62
:1041580093070000930900006FF05FBC3389EF41BB
:10416800B307E84033B62F013386C74093890E0062
:10417800930410006FF01F8E931636009317D80122
:1041880093D63600B3E8D700935738006FF01FB9BD
:10419800931636009317D80193D63600B3E8D700A4
:1041A80093040500935738006FF0DFB6930705FEB8
:1041B80093060002B357F700630AD500930600047C
:1041C8003385A6403317A700336FEF003339E0017A
:1041D8003369F9006FF09FCD930500001305F07F58
:1041E800B70708006FF09F943309FF01B307070171
:1041F8003336F9013386C7006FF09FD39316360024
:104208009317D80193D63600B3E8D70093573800F0
:104218006FF0DFB7130101FB13D745012324810495
:1042280023229104232E31031394C500232611045D
:1042380023202105232C4103232A5103232861032A
:104248002326710323248103232291032320A1031E
:10425800232EB1011377F77F930405001354C4008C
:1042680093D9F501630207189307F07F630CF71CD5
:10427800935AD5011314340033E48A00B70A800036
:10428800B36A5401931B3500130917C09304000047
:10429800130C000013D746011394C6001377F77F59
:1042A8001354C40013DAF6016308070E9307F07F6E
:1042B8006308F704931734001354D601B367F40066
:1042C800130717C03704800033E48700131836003B
:1042D8003309E940930600009307F00033CB490106
:1042E80063E8972617170000130747CF9394240015
:1042F800B384E40083A70400B387E700678007005E
:104308003368C40013091980631A081893E4240059
:1043180013040000930620006FF01FFC1307F07FC2
:1043280093070000130400009397C70013050400C7
:104338008320C104032481041317470193D7C700BE
:10434800131BFB01B3E7E700B3E7670183244104CC
:10435800032901048329C103032A8103832A410312
:10436800032B0103832BC102032C8102832C4102FE
:10437800032D0102832DC101938507001301010557
:1043880067800000130B00001307F07FB7070800D1
:10439800130400006FF05FF93368C4006308080E67
:1043A8006306044E130504002324C100EFD01FC484
:1043B8000326810093060500930755FF9305D00156
:1043C800138786FFB385F540B355B600B317E400ED
:1043D80033E4F5003318E600338726011309373F25
:1043E800930600006FF05FEFB36AA40063860A08C3
:1043F8002326D1002324C1006304044613050400C6
:10440800EFD0DFBE032681008326C1001309050013
:10441800130755FF930AD001930B89FFB38AEA402B
:1044280033147401B3DA5401B3EA8A00B39B7401FC
:104438001307D0C03309274193040000130C000070
:104448006FF05FE5B36AA400639C0A00930B000059
:10445800930480001309F07F130C20006FF09FE392
:10446800930B0500930A04009304C0001309F07F1E
:10447800130C30006FF01FE2930B00009304400010
:1044880013090000130C10006FF0DFE093E4140030
:1044980013040000930610006FF01FE493E4340047
:1044A80013080600930630006FF01FE36388044A80
:1044B80093071000B3879740130780036358F7509A
:1044C8001307000093070000130400006FF0DFE5F6
:1044D80093050A0093072000638EF65A930730006D
:1044E800E382F6EA93071000138B0500E38AF6FCD3
:1044F8009304F93FE35C90FA93777800639207425C
:10450800135738009317740063DA0700B70700FFE2
:104518009387F7FF3374F400930409409307E07F0F
:10452800E3CE97DE931794009316D40133E4E600A4
:1045380093D7C70013F7F47F6FF01FDF9385090047
:1045480013840A0013880B0093060C006FF09FF881
:10455800636E5439638A8A381309F9FF93840B0010
:10456800930D0000135D880193178400336DFD00DF
:10457800135A0D0193050A00931C0D0113850A00B7
:10458800131C880093DC0C01EFD09F9B930505005A
:10459800930B050013850C00EFD0DF9793090500F6
:1045A80093050A0013850A00EFD01F9E1315050115
:1045B80013D704013365A700637E35013305A501D0
:1045C8009387FBFF6360A541637E353F938BEBFFC9
:1045D8003305A501B309354193050A001385090080
:1045E800EFD01F96930505001304050013850C00F2
:1045F800EFD05F922324A10093050A0013850900D8
:10460800EFD09F98939404010327810013150501A7
:1046180093D4040133E5A400637EE5003305A501C6
:104628009307F4FF636CA539637AE5381304E4FF54
:104638003305A50193970B01370E010033E487007A
:10464800930AFEFF33785401B37A5C01B30BE5405B
:1046580093570C01135704011305080093850A00AA
:10466800EFD05F8B930805009385070013050800BA
:10467800EFD05F8A1308050093850A001305070029
:10468800EFD05F8913030500938507001305070022
:10469800EFD05F8813D70801330868003307070194
:1046A800637467003305C501370601001306F6FF7A
:1046B80093560701B379C7009399090133F7C800E6
:1046C8003385A600B389E90063ECAB1E6388AB1E93
:1046D800B3893D413385AB40B3BB3D012324F10091
:1046E800B30B75419304F93F630E7D2593050A00CA
:1046F80013850B00EFD0DF8493050500930D0500AB
:1047080013850C00EFD01F812326A10093050A0012
:1047180013850B00EFD05F870327C1001315050130
:1047280093D6090133E5A60083278100637EE5005F
:104738003305A5019386FDFF636CA531637AE530E7
:10474800938DEDFF3305A501B30BE54093050A00F2
:1047580013850B002326F100EFD08FFE930505008B
:104768002324A10013850C00EFD0CFFA930C050089
:1047780093050A0013850B00EFD01F819399090157
:104788001315050193D90901B3E9A900032881008C
:104798008327C10063FE9901B389A9011307F8FFB4
:1047A80063ECA92B63FA992B1308E8FFB389A901D5
:1047B80013970D01336807011317080113570701F1
:1047C800B3899941135E08011305070093850A0010
:1047D800EFD04FF4930805009385070013050700F1
:1047E800EFD04FF31307050093850A0013050E0059
:1047F800EFD04FF2130305009385070013050E0051
:10480800EFD04FF193D7080133076700B387E7006C
:1048180063F66700370701003305E500B7060100B6
:104828009386F6FF13D70701B3F7D70093970701CD
:10483800B3F8D8003305A700B387170163F4A90CB0
:10484800B3093D011307F8FF63E0A92563EAA9202E
:10485800638CA92413080700136818006FF09FC918
:10486800EFD0CFF8130755019305C00113090502CE
:10487800032681008326C100E3DEE5B8130485FF23
:10488800B39A8400930B00006FF09FBA13050600DB
:104898002324C100EFD08FF5930755011307C001FA
:1048A8009306050203268100E35AF7B0930785FFB4
:1048B800130800003314F6006FF01FB2E3FA3DE16D
:1048C800B38D8D0133B78D013307A701B38BEB008F
:1048D8001307F4FF637E7D0363E0AB16630C751565
:1048E800130407006FF0DFDEE3E80BC79394FA01C7
:1048F80093D71B0093DA1A00B3E4F400939DFB01ED
:104908006FF05FC6E39AA9F4E38607BE6FF05FF322
:10491800E3187DFDE3F28DFD130407006FF05FDB04
:104928009377F80013074000E38CE7BC9337C8FF80
:104938001307480093C71700135737003304F400D0
:104948006FF05FBC1307000093071000E34890FE68
:104958001308F0FFE39E04B4130910C09307100076
:104968001307E941B316E4003356F8003318E8009A
:104978003338000133E7C6003367070193767700C1
:104988003354F400638006029377F70093064000DF
:10499800638AD7009307470033B7E7003304E4007E
:1049A800138707009317840063D8070613071000BE
:1049B80093070000130400006FF01F97138407008B
:1049C8006FF05FC7938B07006FF0DFC01307F0012C
:1049D800E358F7F8130710FE3307974093060002D1
:1049E800B354E4006388D7009307E943B317F4008E
:1049F8003368F80033370001336797001374770082
:104A080093070000630004029377F70093064000C1
:104A180013040000E390D7F89317940093D7C700C6
:104A28001314D401135737003364870013070000A9
:104A38006FF09F8FE3F63DEBB38D8D0133B78D019A
:104A48003307A7011304E4FFB38BEB006FF05FC8D3
:104A5800938D06006FF05FCF130807006FF05FD5E6
:104A680013171C00333C8701330DAC01B389A9012E
:104A78001308E8FF130C0700E390A9DEE38C87A76F
:104A8800136818006FF01FA713080700E388A9FE32
:104A98006FF09FDC138B05001307F07F930700006E
:104AA800130400006FF05F88E36CFCFA130807003A
:104AB800E39887FD6FF01FA413D74501B7071000CF
:104AC8009387F7FF13D846011377F77F9308F07F92
:104AD80033FEB700930E0500B3F7D70093D5F50161
:104AE800130F06001378F87F93D6F601630E1701AB
:104AF8001303100063061801631407016302FE0222
:104B08001305030067800000B368AE0013031000AC
:104B1800E39808FEE316E8FEB3E7C700E39207FE52
:104B280013031000E39EEEFD13030000E38AD5FC97
:104B380013031000E31607FC3365AE003333A000FF
:104B48006FF01FFC13D74501B70710009387F7FFD5
:104B580013D846011377F77F9308F07F33F3B70034
:104B6800130E0500B3F7D70093D5F501930E060091
:104B78001378F87F93D6F6016302170563081803C4
:104B8800631407043365A3006316080033E6C700FF
:104B980063020606630A0504638CD50693061000B3
:104BA800639605041385060067800000B3E8C70014
:104BB800E38808FC9306E0FF6FF0DFFE3365A3008F
:104BC800E31A05FE630EE8026316080033E6C70021
:104BD800E30606FCE394D5FC635CE80263980600F0
:104BE800930610006FF01FFCE39E06FA9306F0FF91
:104BF8006FF05FFB93060000E30605FA6FF01FFAFB
:104C080033E6C700E30806FC9306E0FF6FF09FF960
:104C1800634A0701E3E467F8630CF30093060000B6
:104C2800E372F3F8E38405FC938605006FF09FF7C1
:104C3800E3E6CEF793060000E376DEF76FF09FFE1B
:104C480013D74501B70710009387F7FF1347F7FFFE
:104C580013D84601B3F5B700B3F7D7009316570139
:104C68001378F87F638006021307F07F13050000AE
:104C78006304E80067800000B3E7C7003335F0003D
:104C880067800000B3E5A50013051000E38E05FC5E
:104C9800678000009387418103A5070067800000B3
:044CA800205000F99F
:104CB0003031323334353637383961626364656692
:104CC0000000000030313233343536373839414254
:104CD00043444546000000002A2A2A537461727436
:104CE000696E672055617274204563686F20446562
:104CF0006D6F2A2A2A200D0A000000005374617289
:104D00007420747970696E67206F6E207465726D9F
:104D1000696E616C20746F2073656E6420636861D6
:104D20007261637465722E2E2E200D0A0000000041
:104D30004563686F206368617261637465723A20CD
:104D40002563200D0A000000F8BEFFFF7CBDFFFFB9
:104D50007CBDFFFF78BDFFFF88BDFFFF88BDFFFF63
:104D60001CBDFFFF78BDFFFF88BDFFFF1CBDFFFF1F
:104D700088BDFFFF78BDFFFFD8BEFFFFD8BEFFFF95
:104D8000D8BEFFFF1CBDFFFF0001020203030303A7
:104D900004040404040404040505050505050505CB
:104DA00005050505050505050606060606060606AB
:104DB0000606060606060606060606060606060693
:104DC000060606060606060607070707070707077B
:104DD0000707070707070707070707070707070763
:104DE0000707070707070707070707070707070753
:104DF0000707070707070707070707070707070743
:104E0000070707070707070708080808080808082A
:104E10000808080808080808080808080808080812
:104E20000808080808080808080808080808080802
:104E300008080808080808080808080808080808F2
:104E400008080808080808080808080808080808E2
:104E500008080808080808080808080808080808D2
:104E600008080808080808080808080808080808C2
:104E700008080808080808080808080808080808B2
:104E80000808080808080808000000000000F03FB3
:104E9000000000000000F0FF000000000000F07FB4
:104EA0000000004003B8E23F06D0CF43EBFD4C3E8C
:104EB000000000000000F83F000000000000F0BF0C
:104EC0009C7500883CE4377E000000604715F73F82
:104ED00044DF5DF80BAE543E000000000000D03F00
:104EE000555555555555D53F000000000000E03F91
:104EF000FE822B654715F73F00000000000040438D
:104F0000EF4E454A287ECA3F65DBC9934A86CD3FAE
:104F100001411DA96074D13F4D268F515555D53F94
:104F2000FFAB6FDBB66DDB3F033333333333E33F2C
:104F30000000000000000840000000E009C7EE3F4C
:104F4000FD033ADC09C7EE3FF5015B14E02F3EBEDE
:104F5000FE822B654715973C59F3F8C21F6EA501D9
:104F600000000000432EE63FEF39FAFE422EE63FF6
:104F7000396CA80C615C20BED0A4BE726937663E55
:104F8000F16BD2C541BDBB3E2CDE25AF6A56113F49
:104F900093BDBE166CC1663F3E5555555555C53F30
:104FA0000000000000000040000000000000F87F4A
:104FB000000000000000304300000000000030C38B
:104FC00000000000000050439C7500883CE437FE60
:104FD00059F3F8C21F6EA581000000000000903C4C
:104FE00078F5FFFF44F3FFFFE8F4FFFFF8F4FFFF5D
:104FF000E8F4FFFFACF3FFFFE8F4FFFFF8F4FFFF76
:1050000044F3FFFF44F3FFFFACF3FFFFF8F4FFFFAF
:1050100064F5FFFF64F5FFFF64F5FFFFACF3FFFFEE
:10502000000000000C5300F9745300F9DC5300F940
:105030000000000000000000000000000000000070
:105040000000000000000000000000000000000060
:105050000000000000000000000000000000000050
:105060000000000000000000000000000000000040
:105070000000000000000000000000000000000030
:105080000000000000000000000000000000000020
:105090000000000000000000000000000000000010
:1050A0000000000000000000000000000000000000
:1050B00000000000000000000000000000000000F0
:1050C00000000000000000000100000000000000DF
:1050D0000E33CDAB34126DE6ECDE05000B000000A4
:1050E00000000000000000000000000000000000C0
:1050F00000000000000000000000000000000000B0
:10510000000000000000000000000000000000009F
:10511000000000000000000000000000000000008F
:105440000000000000000000FFFFFFFF205000F9F7
:10545000000000000088C34000000000000024405D
:0A5460000000000000000000000042
:04000005F9000000FE
:00000001FF
